{
  "_format": "hh3-artifact-1",
  "contractName": "DealRegistry",
  "sourceName": "contracts/DealRegistry.sol",
  "abi": [
    {
      "anonymous": false,
      "inputs": [
        {
          "indexed": true,
          "internalType": "string",
          "name": "docId",
          "type": "string"
        },
        {
          "indexed": true,
          "internalType": "uint256",
          "name": "index",
          "type": "uint256"
        },
        {
          "indexed": false,
          "internalType": "string",
          "name": "user",
          "type": "string"
        },
        {
          "indexed": false,
          "internalType": "string",
          "name": "docHash",
          "type": "string"
        }
      ],
      "name": "LogAppended",
      "type": "event"
    },
    {
      "inputs": [
        {
          "internalType": "string",
          "name": "_docId",
          "type": "string"
        },
        {
          "internalType": "string",
          "name": "_user",
          "type": "string"
        },
        {
          "internalType": "string",
          "name": "_action",
          "type": "string"
        },
        {
          "internalType": "string",
          "name": "_docHash",
          "type": "string"
        }
      ],
      "name": "appendLog",
      "outputs": [],
      "stateMutability": "nonpayable",
      "type": "function"
    },
    {
      "inputs": [],
      "name": "getLogsCount",
      "outputs": [
        {
          "internalType": "uint256",
          "name": "",
          "type": "uint256"
        }
      ],
      "stateMutability": "view",
      "type": "function"
    },
    {
      "inputs": [
        {
          "internalType": "uint256",
          "name": "",
          "type": "uint256"
        }
      ],
      "name": "logs",
      "outputs": [
        {
          "internalType": "string",
          "name": "docId",
          "type": "string"
        },
        {
          "internalType": "string",
          "name": "user",
          "type": "string"
        },
        {
          "internalType": "string",
          "name": "action",
          "type": "string"
        },
        {
          "internalType": "string",
          "name": "docHash",
          "type": "string"
        },
        {
          "internalType": "uint256",
          "name": "timestamp",
          "type": "uint256"
        }
      ],
      "stateMutability": "view",
      "type": "function"
    }
  ],
  "bytecode": "0x608060405234801561000f575f80fd5b50610b9c8061001d5f395ff3fe608060405234801561000f575f80fd5b506004361061003f575f3560e01c806347d7502814610043578063cc9e300f1461005f578063e79899bd1461007d575b5f80fd5b61005d60048036038101906100589190610577565b6100b1565b005b6100676101c7565b6040516100749190610663565b60405180910390f35b610097600480360381019061009291906106a6565b6101d2565b6040516100a895949392919061074b565b60405180910390f35b5f6040518060a0016040528086815260200185815260200184815260200183815260200142815250908060018154018082558091505060019003905f5260205f2090600502015f909190919091505f820151815f01908161011291906109b2565b50602082015181600101908161012891906109b2565b50604082015181600201908161013e91906109b2565b50606082015181600301908161015491906109b2565b5060808201518160040155505060015f805490506101729190610aae565b846040516101809190610b1b565b60405180910390207f770b07f049867bbc13fbe2c7da961ce9b56dd0207da4d8cc83b81c0c14014ee685846040516101b9929190610b31565b60405180910390a350505050565b5f8080549050905090565b5f81815481106101e0575f80fd5b905f5260205f2090600502015f91509050805f0180546101ff906107e5565b80601f016020809104026020016040519081016040528092919081815260200182805461022b906107e5565b80156102765780601f1061024d57610100808354040283529160200191610276565b820191905f5260205f20905b81548152906001019060200180831161025957829003601f168201915b50505050509080600101805461028b906107e5565b80601f01602080910402602001604051908101604052809291908181526020018280546102b7906107e5565b80156103025780601f106102d957610100808354040283529160200191610302565b820191905f5260205f20905b8154815290600101906020018083116102e557829003601f168201915b505050505090806002018054610317906107e5565b80601f0160208091040260200160405190810160405280929190818152602001828054610343906107e5565b801561038e5780601f106103655761010080835404028352916020019161038e565b820191905f5260205f20905b81548152906001019060200180831161037157829003601f168201915b5050505050908060030180546103a3906107e5565b80601f01602080910402602001604051908101604052809291908181526020018280546103cf906107e5565b801561041a5780601f106103f15761010080835404028352916020019161041a565b820191905f5260205f20905b8154815290600101906020018083116103fd57829003601f168201915b5050505050908060040154905085565b5f604051905090565b5f80fd5b5f80fd5b5f80fd5b5f80fd5b5f601f19601f8301169050919050565b7f4e487b71000000000000000000000000000000000000000000000000000000005f52604160045260245ffd5b61048982610443565b810181811067ffffffffffffffff821117156104a8576104a7610453565b5b80604052505050565b5f6104ba61042a565b90506104c68282610480565b919050565b5f67ffffffffffffffff8211156104e5576104e4610453565b5b6104ee82610443565b9050602081019050919050565b828183375f83830152505050565b5f61051b610516846104cb565b6104b1565b9050828152602081018484840111156105375761053661043f565b5b6105428482856104fb565b509392505050565b5f82601f83011261055e5761055d61043b565b5b813561056e848260208601610509565b91505092915050565b5f805f806080858703121561058f5761058e610433565b5b5f85013567ffffffffffffffff8111156105ac576105ab610437565b5b6105b88782880161054a565b945050602085013567ffffffffffffffff8111156105d9576105d8610437565b5b6105e58782880161054a565b935050604085013567ffffffffffffffff81111561060657610605610437565b5b6106128782880161054a565b925050606085013567ffffffffffffffff81111561063357610632610437565b5b61063f8782880161054a565b91505092959194509250565b5f819050919050565b61065d8161064b565b82525050565b5f6020820190506106765f830184610654565b92915050565b6106858161064b565b811461068f575f80fd5b50565b5f813590506106a08161067c565b92915050565b5f602082840312156106bb576106ba610433565b5b5f6106c884828501610692565b91505092915050565b5f81519050919050565b5f82825260208201905092915050565b5f5b838110156107085780820151818401526020810190506106ed565b5f8484015250505050565b5f61071d826106d1565b61072781856106db565b93506107378185602086016106eb565b61074081610443565b840191505092915050565b5f60a0820190508181035f8301526107638188610713565b905081810360208301526107778187610713565b9050818103604083015261078b8186610713565b9050818103606083015261079f8185610713565b90506107ae6080830184610654565b9695505050505050565b7f4e487b71000000000000000000000000000000000000000000000000000000005f52602260045260245ffd5b5f60028204905060018216806107fc57607f821691505b60208210810361080f5761080e6107b8565b5b50919050565b5f819050815f5260205f209050919050565b5f6020601f8301049050919050565b5f82821b905092915050565b5f600883026108717fffffffffffffffffffffffffffffffffffffffffffffffffffffffffffffffff82610836565b61087b8683610836565b95508019841693508086168417925050509392505050565b5f819050919050565b5f6108b66108b16108ac8461064b565b610893565b61064b565b9050919050565b5f819050919050565b6108cf8361089c565b6108e36108db826108bd565b848454610842565b825550505050565b5f90565b6108f76108eb565b6109028184846108c6565b505050565b5b818110156109255761091a5f826108ef565b600181019050610908565b5050565b601f82111561096a5761093b81610815565b61094484610827565b81016020851015610953578190505b61096761095f85610827565b830182610907565b50505b505050565b5f82821c905092915050565b5f61098a5f198460080261096f565b1980831691505092915050565b5f6109a2838361097b565b9150826002028217905092915050565b6109bb826106d1565b67ffffffffffffffff8111156109d4576109d3610453565b5b6109de82546107e5565b6109e9828285610929565b5f60209050601f831160018114610a1a575f8415610a08578287015190505b610a128582610997565b865550610a79565b601f198416610a2886610815565b5f5b82811015610a4f57848901518255600182019150602085019450602081019050610a2a565b86831015610a6c5784890151610a68601f89168261097b565b8355505b6001600288020188555050505b505050505050565b7f4e487b71000000000000000000000000000000000000000000000000000000005f52601160045260245ffd5b5f610ab88261064b565b9150610ac38361064b565b9250828203905081811115610adb57610ada610a81565b5b92915050565b5f81905092915050565b5f610af5826106d1565b610aff8185610ae1565b9350610b0f8185602086016106eb565b80840191505092915050565b5f610b268284610aeb565b915081905092915050565b5f6040820190508181035f830152610b498185610713565b90508181036020830152610b5d8184610713565b9050939250505056fea2646970667358221220558f11f396b98082c00282243abf04457361a3485368172ea085bb0aa1cbe30564736f6c63430008180033",
  "linkReferences": {},
  "deployedLinkReferences": {},
  "immutableReferences": {},
  "inputSourceName": "project/contracts/DealRegistry.sol",
  "buildInfoId": "solc-0_8_24-e5338b066361d8bce17db79a46eb129c41172e3f"
}